{
  "_format": "hh-sol-artifact-1",
  "contractName": "MercedesBenz",
  "sourceName": "contracts/MercedesBenz.sol",
  "abi": [
    {
      "inputs": [
        {
          "internalType": "uint32",
          "name": "configMintStartTime",
          "type": "uint32"
        },
        {
          "internalType": "uint32",
          "name": "configMintEndTime",
          "type": "uint32"
        }
      ],
      "stateMutability": "nonpayable",
      "type": "constructor"
    },
    {
      "anonymous": false,
      "inputs": [
        {
          "indexed": true,
          "internalType": "address",
          "name": "owner",
          "type": "address"
        },
        {
          "indexed": true,
          "internalType": "address",
          "name": "approved",
          "type": "address"
        },
        {
          "indexed": true,
          "internalType": "uint256",
          "name": "tokenId",
          "type": "uint256"
        }
      ],
      "name": "Approval",
      "type": "event"
    },
    {
      "anonymous": false,
      "inputs": [
        {
          "indexed": true,
          "internalType": "address",
          "name": "owner",
          "type": "address"
        },
        {
          "indexed": true,
          "internalType": "address",
          "name": "operator",
          "type": "address"
        },
        {
          "indexed": false,
          "internalType": "bool",
          "name": "approved",
          "type": "bool"
        }
      ],
      "name": "ApprovalForAll",
      "type": "event"
    },
    {
      "anonymous": false,
      "inputs": [
        {
          "indexed": true,
          "internalType": "address",
          "name": "owner",
          "type": "address"
        },
        {
          "indexed": false,
          "internalType": "uint256",
          "name": "tokenId",
          "type": "uint256"
        }
      ],
      "name": "MercedesBenzNFTMinted",
      "type": "event"
    },
    {
      "anonymous": false,
      "inputs": [
        {
          "indexed": true,
          "internalType": "address",
          "name": "previousOwner",
          "type": "address"
        },
        {
          "indexed": true,
          "internalType": "address",
          "name": "newOwner",
          "type": "address"
        }
      ],
      "name": "OwnershipTransferred",
      "type": "event"
    },
    {
      "anonymous": false,
      "inputs": [
        {
          "indexed": true,
          "internalType": "address",
          "name": "from",
          "type": "address"
        },
        {
          "indexed": true,
          "internalType": "address",
          "name": "to",
          "type": "address"
        },
        {
          "indexed": true,
          "internalType": "uint256",
          "name": "tokenId",
          "type": "uint256"
        }
      ],
      "name": "Transfer",
      "type": "event"
    },
    {
      "inputs": [],
      "name": "COLLECTION_SIZE",
      "outputs": [
        {
          "internalType": "uint8",
          "name": "",
          "type": "uint8"
        }
      ],
      "stateMutability": "view",
      "type": "function"
    },
    {
      "inputs": [],
      "name": "MAX_MINT_PER_ADDRESS",
      "outputs": [
        {
          "internalType": "uint8",
          "name": "",
          "type": "uint8"
        }
      ],
      "stateMutability": "view",
      "type": "function"
    },
    {
      "inputs": [
        {
          "internalType": "address",
          "name": "to",
          "type": "address"
        },
        {
          "internalType": "uint256",
          "name": "tokenId",
          "type": "uint256"
        }
      ],
      "name": "approve",
      "outputs": [],
      "stateMutability": "nonpayable",
      "type": "function"
    },
    {
      "inputs": [
        {
          "internalType": "address",
          "name": "owner",
          "type": "address"
        }
      ],
      "name": "balanceOf",
      "outputs": [
        {
          "internalType": "uint256",
          "name": "",
          "type": "uint256"
        }
      ],
      "stateMutability": "view",
      "type": "function"
    },
    {
      "inputs": [],
      "name": "checkIfUserHasNFT",
      "outputs": [
        {
          "internalType": "uint256",
          "name": "",
          "type": "uint256"
        }
      ],
      "stateMutability": "view",
      "type": "function"
    },
    {
      "inputs": [],
      "name": "config",
      "outputs": [
        {
          "internalType": "uint256",
          "name": "mintStartTime",
          "type": "uint256"
        },
        {
          "internalType": "uint256",
          "name": "mintEndTime",
          "type": "uint256"
        }
      ],
      "stateMutability": "view",
      "type": "function"
    },
    {
      "inputs": [
        {
          "internalType": "uint256",
          "name": "tokenId",
          "type": "uint256"
        }
      ],
      "name": "getApproved",
      "outputs": [
        {
          "internalType": "address",
          "name": "",
          "type": "address"
        }
      ],
      "stateMutability": "view",
      "type": "function"
    },
    {
      "inputs": [
        {
          "internalType": "uint256",
          "name": "tokenId",
          "type": "uint256"
        }
      ],
      "name": "getOwnershipData",
      "outputs": [
        {
          "components": [
            {
              "internalType": "address",
              "name": "addr",
              "type": "address"
            },
            {
              "internalType": "uint64",
              "name": "startTimestamp",
              "type": "uint64"
            }
          ],
          "internalType": "struct ERC721A.TokenOwnership",
          "name": "",
          "type": "tuple"
        }
      ],
      "stateMutability": "view",
      "type": "function"
    },
    {
      "inputs": [
        {
          "internalType": "address",
          "name": "owner",
          "type": "address"
        },
        {
          "internalType": "address",
          "name": "operator",
          "type": "address"
        }
      ],
      "name": "isApprovedForAll",
      "outputs": [
        {
          "internalType": "bool",
          "name": "",
          "type": "bool"
        }
      ],
      "stateMutability": "view",
      "type": "function"
    },
    {
      "inputs": [
        {
          "internalType": "uint256",
          "name": "mintStartTime",
          "type": "uint256"
        },
        {
          "internalType": "uint256",
          "name": "mintEndTime",
          "type": "uint256"
        }
      ],
      "name": "isMintingLive",
      "outputs": [
        {
          "internalType": "bool",
          "name": "",
          "type": "bool"
        }
      ],
      "stateMutability": "view",
      "type": "function"
    },
    {
      "inputs": [],
      "name": "mint",
      "outputs": [],
      "stateMutability": "nonpayable",
      "type": "function"
    },
    {
      "inputs": [],
      "name": "name",
      "outputs": [
        {
          "internalType": "string",
          "name": "",
          "type": "string"
        }
      ],
      "stateMutability": "view",
      "type": "function"
    },
    {
      "inputs": [],
      "name": "nextOwnerToExplicitlySet",
      "outputs": [
        {
          "internalType": "uint256",
          "name": "",
          "type": "uint256"
        }
      ],
      "stateMutability": "view",
      "type": "function"
    },
    {
      "inputs": [
        {
          "internalType": "address",
          "name": "",
          "type": "address"
        }
      ],
      "name": "nftHolders",
      "outputs": [
        {
          "internalType": "uint256",
          "name": "",
          "type": "uint256"
        }
      ],
      "stateMutability": "view",
      "type": "function"
    },
    {
      "inputs": [
        {
          "internalType": "address",
          "name": "owner",
          "type": "address"
        }
      ],
      "name": "numberMinted",
      "outputs": [
        {
          "internalType": "uint256",
          "name": "",
          "type": "uint256"
        }
      ],
      "stateMutability": "view",
      "type": "function"
    },
    {
      "inputs": [],
      "name": "owner",
      "outputs": [
        {
          "internalType": "address",
          "name": "",
          "type": "address"
        }
      ],
      "stateMutability": "view",
      "type": "function"
    },
    {
      "inputs": [
        {
          "internalType": "uint256",
          "name": "tokenId",
          "type": "uint256"
        }
      ],
      "name": "ownerOf",
      "outputs": [
        {
          "internalType": "address",
          "name": "",
          "type": "address"
        }
      ],
      "stateMutability": "view",
      "type": "function"
    },
    {
      "inputs": [],
      "name": "renounceOwnership",
      "outputs": [],
      "stateMutability": "nonpayable",
      "type": "function"
    },
    {
      "inputs": [
        {
          "internalType": "address",
          "name": "from",
          "type": "address"
        },
        {
          "internalType": "address",
          "name": "to",
          "type": "address"
        },
        {
          "internalType": "uint256",
          "name": "tokenId",
          "type": "uint256"
        }
      ],
      "name": "safeTransferFrom",
      "outputs": [],
      "stateMutability": "nonpayable",
      "type": "function"
    },
    {
      "inputs": [
        {
          "internalType": "address",
          "name": "from",
          "type": "address"
        },
        {
          "internalType": "address",
          "name": "to",
          "type": "address"
        },
        {
          "internalType": "uint256",
          "name": "tokenId",
          "type": "uint256"
        },
        {
          "internalType": "bytes",
          "name": "_data",
          "type": "bytes"
        }
      ],
      "name": "safeTransferFrom",
      "outputs": [],
      "stateMutability": "nonpayable",
      "type": "function"
    },
    {
      "inputs": [
        {
          "internalType": "address",
          "name": "operator",
          "type": "address"
        },
        {
          "internalType": "bool",
          "name": "approved",
          "type": "bool"
        }
      ],
      "name": "setApprovalForAll",
      "outputs": [],
      "stateMutability": "nonpayable",
      "type": "function"
    },
    {
      "inputs": [
        {
          "internalType": "string",
          "name": "baseURI",
          "type": "string"
        }
      ],
      "name": "setBaseURI",
      "outputs": [],
      "stateMutability": "nonpayable",
      "type": "function"
    },
    {
      "inputs": [
        {
          "internalType": "uint256",
          "name": "quantity",
          "type": "uint256"
        }
      ],
      "name": "setOwnersExplicit",
      "outputs": [],
      "stateMutability": "nonpayable",
      "type": "function"
    },
    {
      "inputs": [
        {
          "internalType": "bytes4",
          "name": "interfaceId",
          "type": "bytes4"
        }
      ],
      "name": "supportsInterface",
      "outputs": [
        {
          "internalType": "bool",
          "name": "",
          "type": "bool"
        }
      ],
      "stateMutability": "view",
      "type": "function"
    },
    {
      "inputs": [],
      "name": "symbol",
      "outputs": [
        {
          "internalType": "string",
          "name": "",
          "type": "string"
        }
      ],
      "stateMutability": "view",
      "type": "function"
    },
    {
      "inputs": [
        {
          "internalType": "uint256",
          "name": "index",
          "type": "uint256"
        }
      ],
      "name": "tokenByIndex",
      "outputs": [
        {
          "internalType": "uint256",
          "name": "",
          "type": "uint256"
        }
      ],
      "stateMutability": "view",
      "type": "function"
    },
    {
      "inputs": [
        {
          "internalType": "address",
          "name": "owner",
          "type": "address"
        },
        {
          "internalType": "uint256",
          "name": "index",
          "type": "uint256"
        }
      ],
      "name": "tokenOfOwnerByIndex",
      "outputs": [
        {
          "internalType": "uint256",
          "name": "",
          "type": "uint256"
        }
      ],
      "stateMutability": "view",
      "type": "function"
    },
    {
      "inputs": [
        {
          "internalType": "uint256",
          "name": "tokenId",
          "type": "uint256"
        }
      ],
      "name": "tokenURI",
      "outputs": [
        {
          "internalType": "string",
          "name": "",
          "type": "string"
        }
      ],
      "stateMutability": "view",
      "type": "function"
    },
    {
      "inputs": [],
      "name": "totalSupply",
      "outputs": [
        {
          "internalType": "uint256",
          "name": "",
          "type": "uint256"
        }
      ],
      "stateMutability": "view",
      "type": "function"
    },
    {
      "inputs": [
        {
          "internalType": "address",
          "name": "from",
          "type": "address"
        },
        {
          "internalType": "address",
          "name": "to",
          "type": "address"
        },
        {
          "internalType": "uint256",
          "name": "tokenId",
          "type": "uint256"
        }
      ],
      "name": "transferFrom",
      "outputs": [],
      "stateMutability": "nonpayable",
      "type": "function"
    },
    {
      "inputs": [
        {
          "internalType": "address",
          "name": "newOwner",
          "type": "address"
        }
      ],
      "name": "transferOwnership",
      "outputs": [],
      "stateMutability": "nonpayable",
      "type": "function"
    }
  ],
  "bytecode": "0x60c0604052600060015560006008553480156200001b57600080fd5b506040516200543f3803806200543f833981810160405281019062000041919062000395565b6040518060400160405280600c81526020017f4d6572636564657342656e7a00000000000000000000000000000000000000008152506040518060400160405280600581526020017f4d424e4654000000000000000000000000000000000000000000000000000000815250600160ff16600560ff16620000d7620000cb6200028360201b60201c565b6200028b60201b60201c565b600081116200011d576040517f08c379a0000000000000000000000000000000000000000000000000000000008152600401620001149062000463565b60405180910390fd5b6000821162000163576040517f08c379a00000000000000000000000000000000000000000000000000000000081526004016200015a90620004fb565b60405180910390fd5b836002908162000174919062000797565b50826003908162000186919062000797565b508160a08181525050806080818152505050505050600160098190555060008263ffffffff1611620001ef576040517f08c379a0000000000000000000000000000000000000000000000000000000008152600401620001e690620008f4565b60405180910390fd5b8063ffffffff168263ffffffff16111562000241576040517f08c379a000000000000000000000000000000000000000000000000000000000815260040162000238906200098c565b60405180910390fd5b8163ffffffff1642620002559190620009dd565b600a600001819055508063ffffffff1642620002729190620009dd565b600a60010181905550505062000a18565b600033905090565b60008060009054906101000a900473ffffffffffffffffffffffffffffffffffffffff169050816000806101000a81548173ffffffffffffffffffffffffffffffffffffffff021916908373ffffffffffffffffffffffffffffffffffffffff1602179055508173ffffffffffffffffffffffffffffffffffffffff168173ffffffffffffffffffffffffffffffffffffffff167f8be0079c531659141344cd1fd0a4f28419497f9722a3daafe3b4186f6b6457e060405160405180910390a35050565b600080fd5b600063ffffffff82169050919050565b6200036f8162000354565b81146200037b57600080fd5b50565b6000815190506200038f8162000364565b92915050565b60008060408385031215620003af57620003ae6200034f565b5b6000620003bf858286016200037e565b9250506020620003d2858286016200037e565b9150509250929050565b600082825260208201905092915050565b7f455243373231413a20636f6c6c656374696f6e206d757374206861766520612060008201527f6e6f6e7a65726f20737570706c79000000000000000000000000000000000000602082015250565b60006200044b602e83620003dc565b91506200045882620003ed565b604082019050919050565b600060208201905081810360008301526200047e816200043c565b9050919050565b7f455243373231413a206d61782062617463682073697a65206d7573742062652060008201527f6e6f6e7a65726f00000000000000000000000000000000000000000000000000602082015250565b6000620004e3602783620003dc565b9150620004f08262000485565b604082019050919050565b600060208201905081810360008301526200051681620004d4565b9050919050565b600081519050919050565b7f4e487b7100000000000000000000000000000000000000000000000000000000600052604160045260246000fd5b7f4e487b7100000000000000000000000000000000000000000000000000000000600052602260045260246000fd5b600060028204905060018216806200059f57607f821691505b602082108103620005b557620005b462000557565b5b50919050565b60008190508160005260206000209050919050565b60006020601f8301049050919050565b600082821b905092915050565b6000600883026200061f7fffffffffffffffffffffffffffffffffffffffffffffffffffffffffffffffff82620005e0565b6200062b8683620005e0565b95508019841693508086168417925050509392505050565b6000819050919050565b6000819050919050565b600062000678620006726200066c8462000643565b6200064d565b62000643565b9050919050565b6000819050919050565b620006948362000657565b620006ac620006a3826200067f565b848454620005ed565b825550505050565b600090565b620006c3620006b4565b620006d081848462000689565b505050565b5b81811015620006f857620006ec600082620006b9565b600181019050620006d6565b5050565b601f82111562000747576200071181620005bb565b6200071c84620005d0565b810160208510156200072c578190505b620007446200073b85620005d0565b830182620006d5565b50505b505050565b600082821c905092915050565b60006200076c600019846008026200074c565b1980831691505092915050565b600062000787838362000759565b9150826002028217905092915050565b620007a2826200051d565b67ffffffffffffffff811115620007be57620007bd62000528565b5b620007ca825462000586565b620007d7828285620006fc565b600060209050601f8311600181146200080f5760008415620007fa578287015190505b62000806858262000779565b86555062000876565b601f1984166200081f86620005bb565b60005b82811015620008495784890151825560018201915060208501945060208101905062000822565b8683101562000869578489015162000865601f89168262000759565b8355505b6001600288020188555050505b505050505050565b7f6d696e742073746172742074696d65206d75737420626520696e20746865206660008201527f7574757265000000000000000000000000000000000000000000000000000000602082015250565b6000620008dc602583620003dc565b9150620008e9826200087e565b604082019050919050565b600060208201905081810360008301526200090f81620008cd565b9050919050565b7f6d696e742073746172742074696d65206d757374206265206265666f7265206d60008201527f696e7420656e642074696d650000000000000000000000000000000000000000602082015250565b600062000974602c83620003dc565b9150620009818262000916565b604082019050919050565b60006020820190508181036000830152620009a78162000965565b9050919050565b7f4e487b7100000000000000000000000000000000000000000000000000000000600052601160045260246000fd5b6000620009ea8262000643565b9150620009f78362000643565b925082820190508082111562000a125762000a11620009ae565b5b92915050565b60805160a0516149ec62000a53600039600081816120c9015281816120f2015261285e015260008181611e520152611e8601526149ec6000f3fe608060405234801561001057600080fd5b50600436106101e55760003560e01c806370a082311161010f578063b88d4fde116100a2578063d8258d9511610071578063d8258d9514610593578063dc33e681146105b1578063e985e9c5146105e1578063f2fde38b14610611576101e5565b8063b88d4fde1461050b578063c87b56dd14610527578063c8cf27f414610557578063d7224ba014610575576101e5565b80638da5cb5b116100de5780638da5cb5b146104835780639231ab2a146104a157806395d89b41146104d1578063a22cb465146104ef576101e5565b806370a08231146103fa578063715018a61461042a57806379502c55146104345780637df124a114610453576101e5565b80632d20fb60116101875780634f6ccce7116101565780634f6ccce71461034e57806355f804b31461037e5780635ff571091461039a5780636352211e146103ca576101e5565b80632d20fb60146102c85780632f745c59146102e45780633acd6cb21461031457806342842e0e14610332576101e5565b8063095ea7b3116101c3578063095ea7b3146102685780631249c58b1461028457806318160ddd1461028e57806323b872dd146102ac576101e5565b806301ffc9a7146101ea57806306fdde031461021a578063081812fc14610238575b600080fd5b61020460048036038101906101ff9190612d41565b61062d565b6040516102119190612d89565b60405180910390f35b610222610777565b60405161022f9190612e34565b60405180910390f35b610252600480360381019061024d9190612e8c565b610809565b60405161025f9190612efa565b60405180910390f35b610282600480360381019061027d9190612f41565b61088e565b005b61028c6109a6565b005b610296610bd0565b6040516102a39190612f90565b60405180910390f35b6102c660048036038101906102c19190612fab565b610bda565b005b6102e260048036038101906102dd9190612e8c565b610bea565b005b6102fe60048036038101906102f99190612f41565b610cc7565b60405161030b9190612f90565b60405180910390f35b61031c610ec3565b604051610329919061301a565b60405180910390f35b61034c60048036038101906103479190612fab565b610ec8565b005b61036860048036038101906103639190612e8c565b610ee8565b6040516103759190612f90565b60405180910390f35b6103986004803603810190610393919061309a565b610f3b565b005b6103b460048036038101906103af91906130e7565b610fcd565b6040516103c19190612d89565b60405180910390f35b6103e460048036038101906103df9190612e8c565b610fe7565b6040516103f19190612efa565b60405180910390f35b610414600480360381019061040f9190613127565b610ffd565b6040516104219190612f90565b60405180910390f35b6104326110e5565b005b61043c61116d565b60405161044a929190613154565b60405180910390f35b61046d60048036038101906104689190613127565b61117f565b60405161047a9190612f90565b60405180910390f35b61048b611197565b6040516104989190612efa565b60405180910390f35b6104bb60048036038101906104b69190612e8c565b6111c0565b6040516104c891906131de565b60405180910390f35b6104d96111d8565b6040516104e69190612e34565b60405180910390f35b61050960048036038101906105049190613225565b61126a565b005b61052560048036038101906105209190613395565b6113ea565b005b610541600480360381019061053c9190612e8c565b611446565b60405161054e9190612e34565b60405180910390f35b61055f6114ed565b60405161056c9190612f90565b60405180910390f35b61057d611539565b60405161058a9190612f90565b60405180910390f35b61059b61153f565b6040516105a8919061301a565b60405180910390f35b6105cb60048036038101906105c69190613127565b611544565b6040516105d89190612f90565b60405180910390f35b6105fb60048036038101906105f69190613418565b611556565b6040516106089190612d89565b60405180910390f35b61062b60048036038101906106269190613127565b6115ea565b005b60007f80ac58cd000000000000000000000000000000000000000000000000000000007bffffffffffffffffffffffffffffffffffffffffffffffffffffffff1916827bffffffffffffffffffffffffffffffffffffffffffffffffffffffff191614806106f857507f5b5e139f000000000000000000000000000000000000000000000000000000007bffffffffffffffffffffffffffffffffffffffffffffffffffffffff1916827bffffffffffffffffffffffffffffffffffffffffffffffffffffffff1916145b8061076057507f780e9d63000000000000000000000000000000000000000000000000000000007bffffffffffffffffffffffffffffffffffffffffffffffffffffffff1916827bffffffffffffffffffffffffffffffffffffffffffffffffffffffff1916145b80610770575061076f826116e1565b5b9050919050565b60606002805461078690613487565b80601f01602080910402602001604051908101604052809291908181526020018280546107b290613487565b80156107ff5780601f106107d4576101008083540402835291602001916107ff565b820191906000526020600020905b8154815290600101906020018083116107e257829003601f168201915b5050505050905090565b60006108148261174b565b610853576040517f08c379a000000000000000000000000000000000000000000000000000000000815260040161084a9061352a565b60405180910390fd5b6006600083815260200190815260200160002060009054906101000a900473ffffffffffffffffffffffffffffffffffffffff169050919050565b600061089982610fe7565b90508073ffffffffffffffffffffffffffffffffffffffff168373ffffffffffffffffffffffffffffffffffffffff1603610909576040517f08c379a0000000000000000000000000000000000000000000000000000000008152600401610900906135bc565b60405180910390fd5b8073ffffffffffffffffffffffffffffffffffffffff16610928611759565b73ffffffffffffffffffffffffffffffffffffffff161480610957575061095681610951611759565b611556565b5b610996576040517f08c379a000000000000000000000000000000000000000000000000000000000815260040161098d9061364e565b60405180910390fd5b6109a1838383611761565b505050565b3373ffffffffffffffffffffffffffffffffffffffff163273ffffffffffffffffffffffffffffffffffffffff1614610a14576040517f08c379a0000000000000000000000000000000000000000000000000000000008152600401610a0b906136ba565b60405180910390fd5b6000600a6000015490506000600a60010154905060006001610a34610bd0565b610a3e9190613709565b9050610a4a8383610fcd565b610a89576040517f08c379a0000000000000000000000000000000000000000000000000000000008152600401610a80906137af565b60405180910390fd5b600560ff16811115610ad0576040517f08c379a0000000000000000000000000000000000000000000000000000000008152600401610ac79061381b565b60405180910390fd5b600160ff166001610ae033611544565b610aea9190613709565b1115610b2b576040517f08c379a0000000000000000000000000000000000000000000000000000000008152600401610b2290613887565b60405180910390fd5b610b3933600160ff16611813565b80600c60003373ffffffffffffffffffffffffffffffffffffffff1673ffffffffffffffffffffffffffffffffffffffff168152602001908152602001600020819055503373ffffffffffffffffffffffffffffffffffffffff167f6df5b3f5497423bf62c9920c89b32f564b6eea96217f9a3840a40ee59a15bdc682604051610bc39190612f90565b60405180910390a2505050565b6000600154905090565b610be5838383611831565b505050565b610bf2611759565b73ffffffffffffffffffffffffffffffffffffffff16610c10611197565b73ffffffffffffffffffffffffffffffffffffffff1614610c66576040517f08c379a0000000000000000000000000000000000000000000000000000000008152600401610c5d906138f3565b60405180910390fd5b600260095403610cab576040517f08c379a0000000000000000000000000000000000000000000000000000000008152600401610ca29061395f565b60405180910390fd5b6002600981905550610cbc81611de8565b600160098190555050565b6000610cd283610ffd565b8210610d13576040517f08c379a0000000000000000000000000000000000000000000000000000000008152600401610d0a906139f1565b60405180910390fd5b6000610d1d610bd0565b905060008060005b83811015610e81576000600460008381526020019081526020016000206040518060400160405290816000820160009054906101000a900473ffffffffffffffffffffffffffffffffffffffff1673ffffffffffffffffffffffffffffffffffffffff1673ffffffffffffffffffffffffffffffffffffffff1681526020016000820160149054906101000a900467ffffffffffffffff1667ffffffffffffffff1667ffffffffffffffff16815250509050600073ffffffffffffffffffffffffffffffffffffffff16816000015173ffffffffffffffffffffffffffffffffffffffff1614610e1757806000015192505b8773ffffffffffffffffffffffffffffffffffffffff168373ffffffffffffffffffffffffffffffffffffffff1603610e6d57868403610e5e578195505050505050610ebd565b8380610e6990613a11565b9450505b508080610e7990613a11565b915050610d25565b506040517f08c379a0000000000000000000000000000000000000000000000000000000008152600401610eb490613acb565b60405180910390fd5b92915050565b600181565b610ee3838383604051806020016040528060008152506113ea565b505050565b6000610ef2610bd0565b8210610f33576040517f08c379a0000000000000000000000000000000000000000000000000000000008152600401610f2a90613b5d565b60405180910390fd5b819050919050565b610f43611759565b73ffffffffffffffffffffffffffffffffffffffff16610f61611197565b73ffffffffffffffffffffffffffffffffffffffff1614610fb7576040517f08c379a0000000000000000000000000000000000000000000000000000000008152600401610fae906138f3565b60405180910390fd5b8181600d9182610fc8929190613d34565b505050565b6000824210158015610fdf5750814211155b905092915050565b6000610ff282612075565b600001519050919050565b60008073ffffffffffffffffffffffffffffffffffffffff168273ffffffffffffffffffffffffffffffffffffffff160361106d576040517f08c379a000000000000000000000000000000000000000000000000000000000815260040161106490613e76565b60405180910390fd5b600560008373ffffffffffffffffffffffffffffffffffffffff1673ffffffffffffffffffffffffffffffffffffffff16815260200190815260200160002060000160009054906101000a90046fffffffffffffffffffffffffffffffff166fffffffffffffffffffffffffffffffff169050919050565b6110ed611759565b73ffffffffffffffffffffffffffffffffffffffff1661110b611197565b73ffffffffffffffffffffffffffffffffffffffff1614611161576040517f08c379a0000000000000000000000000000000000000000000000000000000008152600401611158906138f3565b60405180910390fd5b61116b6000612278565b565b600a8060000154908060010154905082565b600c6020528060005260406000206000915090505481565b60008060009054906101000a900473ffffffffffffffffffffffffffffffffffffffff16905090565b6111c8612c9b565b6111d182612075565b9050919050565b6060600380546111e790613487565b80601f016020809104026020016040519081016040528092919081815260200182805461121390613487565b80156112605780601f1061123557610100808354040283529160200191611260565b820191906000526020600020905b81548152906001019060200180831161124357829003601f168201915b5050505050905090565b611272611759565b73ffffffffffffffffffffffffffffffffffffffff168273ffffffffffffffffffffffffffffffffffffffff16036112df576040517f08c379a00000000000000000000000000000000000000000000000000000000081526004016112d690613ee2565b60405180910390fd5b80600760006112ec611759565b73ffffffffffffffffffffffffffffffffffffffff1673ffffffffffffffffffffffffffffffffffffffff16815260200190815260200160002060008473ffffffffffffffffffffffffffffffffffffffff1673ffffffffffffffffffffffffffffffffffffffff16815260200190815260200160002060006101000a81548160ff0219169083151502179055508173ffffffffffffffffffffffffffffffffffffffff16611399611759565b73ffffffffffffffffffffffffffffffffffffffff167f17307eab39ab6107e8899845ad3d59bd9653f200f220920489ca2b5937696c31836040516113de9190612d89565b60405180910390a35050565b6113f5848484611831565b6114018484848461233c565b611440576040517f08c379a000000000000000000000000000000000000000000000000000000000815260040161143790613f74565b60405180910390fd5b50505050565b60606114518261174b565b611490576040517f08c379a000000000000000000000000000000000000000000000000000000000815260040161148790614006565b60405180910390fd5b600061149a6124c3565b905060008151116114ba57604051806020016040528060008152506114e5565b806114c484612555565b6040516020016114d5929190614062565b6040516020818303038152906040525b915050919050565b600080600c60003373ffffffffffffffffffffffffffffffffffffffff1673ffffffffffffffffffffffffffffffffffffffff1681526020019081526020016000205490508091505090565b60085481565b600581565b600061154f826126b5565b9050919050565b6000600760008473ffffffffffffffffffffffffffffffffffffffff1673ffffffffffffffffffffffffffffffffffffffff16815260200190815260200160002060008373ffffffffffffffffffffffffffffffffffffffff1673ffffffffffffffffffffffffffffffffffffffff16815260200190815260200160002060009054906101000a900460ff16905092915050565b6115f2611759565b73ffffffffffffffffffffffffffffffffffffffff16611610611197565b73ffffffffffffffffffffffffffffffffffffffff1614611666576040517f08c379a000000000000000000000000000000000000000000000000000000000815260040161165d906138f3565b60405180910390fd5b600073ffffffffffffffffffffffffffffffffffffffff168173ffffffffffffffffffffffffffffffffffffffff16036116d5576040517f08c379a00000000000000000000000000000000000000000000000000000000081526004016116cc906140f8565b60405180910390fd5b6116de81612278565b50565b60007f01ffc9a7000000000000000000000000000000000000000000000000000000007bffffffffffffffffffffffffffffffffffffffffffffffffffffffff1916827bffffffffffffffffffffffffffffffffffffffffffffffffffffffff1916149050919050565b600060015482109050919050565b600033905090565b826006600084815260200190815260200160002060006101000a81548173ffffffffffffffffffffffffffffffffffffffff021916908373ffffffffffffffffffffffffffffffffffffffff160217905550818373ffffffffffffffffffffffffffffffffffffffff168273ffffffffffffffffffffffffffffffffffffffff167f8c5be1e5ebec7d5bd14f71427d1e84f3dd0314c0f7b2291e5b200ac8c7c3b92560405160405180910390a4505050565b61182d82826040518060200160405280600081525061279d565b5050565b600061183c82612075565b90506000816000015173ffffffffffffffffffffffffffffffffffffffff16611863611759565b73ffffffffffffffffffffffffffffffffffffffff1614806118bf5750611888611759565b73ffffffffffffffffffffffffffffffffffffffff166118a784610809565b73ffffffffffffffffffffffffffffffffffffffff16145b806118db57506118da82600001516118d5611759565b611556565b5b90508061191d576040517f08c379a00000000000000000000000000000000000000000000000000000000081526004016119149061418a565b60405180910390fd5b8473ffffffffffffffffffffffffffffffffffffffff16826000015173ffffffffffffffffffffffffffffffffffffffff161461198f576040517f08c379a00000000000000000000000000000000000000000000000000000000081526004016119869061421c565b60405180910390fd5b600073ffffffffffffffffffffffffffffffffffffffff168473ffffffffffffffffffffffffffffffffffffffff16036119fe576040517f08c379a00000000000000000000000000000000000000000000000000000000081526004016119f5906142ae565b60405180910390fd5b611a0b8585856001612c7c565b611a1b6000848460000151611761565b6001600560008773ffffffffffffffffffffffffffffffffffffffff1673ffffffffffffffffffffffffffffffffffffffff16815260200190815260200160002060000160008282829054906101000a90046fffffffffffffffffffffffffffffffff16611a8991906142ea565b92506101000a8154816fffffffffffffffffffffffffffffffff02191690836fffffffffffffffffffffffffffffffff1602179055506001600560008673ffffffffffffffffffffffffffffffffffffffff1673ffffffffffffffffffffffffffffffffffffffff16815260200190815260200160002060000160008282829054906101000a90046fffffffffffffffffffffffffffffffff16611b2d919061432e565b92506101000a8154816fffffffffffffffffffffffffffffffff02191690836fffffffffffffffffffffffffffffffff16021790555060405180604001604052808573ffffffffffffffffffffffffffffffffffffffff1681526020014267ffffffffffffffff168152506004600085815260200190815260200160002060008201518160000160006101000a81548173ffffffffffffffffffffffffffffffffffffffff021916908373ffffffffffffffffffffffffffffffffffffffff16021790555060208201518160000160146101000a81548167ffffffffffffffff021916908367ffffffffffffffff1602179055509050506000600184611c339190613709565b9050600073ffffffffffffffffffffffffffffffffffffffff166004600083815260200190815260200160002060000160009054906101000a900473ffffffffffffffffffffffffffffffffffffffff1673ffffffffffffffffffffffffffffffffffffffff1603611d7857611ca88161174b565b15611d77576040518060400160405280846000015173ffffffffffffffffffffffffffffffffffffffff168152602001846020015167ffffffffffffffff168152506004600083815260200190815260200160002060008201518160000160006101000a81548173ffffffffffffffffffffffffffffffffffffffff021916908373ffffffffffffffffffffffffffffffffffffffff16021790555060208201518160000160146101000a81548167ffffffffffffffff021916908367ffffffffffffffff1602179055509050505b5b838573ffffffffffffffffffffffffffffffffffffffff168773ffffffffffffffffffffffffffffffffffffffff167fddf252ad1be2c89b69c2b068fc378daa952ba7f163c4a11628f55a4df523b3ef60405160405180910390a4611de08686866001612c82565b505050505050565b6000600854905060008211611e32576040517f08c379a0000000000000000000000000000000000000000000000000000000008152600401611e29906143be565b60405180910390fd5b600060018383611e429190613709565b611e4c91906143de565b905060017f0000000000000000000000000000000000000000000000000000000000000000611e7b91906143de565b811115611eb25760017f0000000000000000000000000000000000000000000000000000000000000000611eaf91906143de565b90505b611ebb8161174b565b611efa576040517f08c379a0000000000000000000000000000000000000000000000000000000008152600401611ef190614484565b60405180910390fd5b60008290505b81811161205c57600073ffffffffffffffffffffffffffffffffffffffff166004600083815260200190815260200160002060000160009054906101000a900473ffffffffffffffffffffffffffffffffffffffff1673ffffffffffffffffffffffffffffffffffffffff1603612049576000611f7c82612075565b90506040518060400160405280826000015173ffffffffffffffffffffffffffffffffffffffff168152602001826020015167ffffffffffffffff168152506004600084815260200190815260200160002060008201518160000160006101000a81548173ffffffffffffffffffffffffffffffffffffffff021916908373ffffffffffffffffffffffffffffffffffffffff16021790555060208201518160000160146101000a81548167ffffffffffffffff021916908367ffffffffffffffff160217905550905050505b808061205490613a11565b915050611f00565b5060018161206a9190613709565b600881905550505050565b61207d612c9b565b6120868261174b565b6120c5576040517f08c379a00000000000000000000000000000000000000000000000000000000081526004016120bc90614516565b60405180910390fd5b60007f000000000000000000000000000000000000000000000000000000000000000083106121295760017f00000000000000000000000000000000000000000000000000000000000000008461211c91906143de565b6121269190613709565b90505b60008390505b818110612237576000600460008381526020019081526020016000206040518060400160405290816000820160009054906101000a900473ffffffffffffffffffffffffffffffffffffffff1673ffffffffffffffffffffffffffffffffffffffff1673ffffffffffffffffffffffffffffffffffffffff1681526020016000820160149054906101000a900467ffffffffffffffff1667ffffffffffffffff1667ffffffffffffffff16815250509050600073ffffffffffffffffffffffffffffffffffffffff16816000015173ffffffffffffffffffffffffffffffffffffffff161461222357809350505050612273565b50808061222f90614536565b91505061212f565b506040517f08c379a000000000000000000000000000000000000000000000000000000000815260040161226a906145d1565b60405180910390fd5b919050565b60008060009054906101000a900473ffffffffffffffffffffffffffffffffffffffff169050816000806101000a81548173ffffffffffffffffffffffffffffffffffffffff021916908373ffffffffffffffffffffffffffffffffffffffff1602179055508173ffffffffffffffffffffffffffffffffffffffff168173ffffffffffffffffffffffffffffffffffffffff167f8be0079c531659141344cd1fd0a4f28419497f9722a3daafe3b4186f6b6457e060405160405180910390a35050565b600061235d8473ffffffffffffffffffffffffffffffffffffffff16612c88565b156124b6578373ffffffffffffffffffffffffffffffffffffffff1663150b7a02612386611759565b8786866040518563ffffffff1660e01b81526004016123a89493929190614646565b6020604051808303816000875af19250505080156123e457506040513d601f19601f820116820180604052508101906123e191906146a7565b60015b612466573d8060008114612414576040519150601f19603f3d011682016040523d82523d6000602084013e612419565b606091505b50600081510361245e576040517f08c379a000000000000000000000000000000000000000000000000000000000815260040161245590613f74565b60405180910390fd5b805181602001fd5b63150b7a0260e01b7bffffffffffffffffffffffffffffffffffffffffffffffffffffffff1916817bffffffffffffffffffffffffffffffffffffffffffffffffffffffff1916149150506124bb565b600190505b949350505050565b6060600d80546124d290613487565b80601f01602080910402602001604051908101604052809291908181526020018280546124fe90613487565b801561254b5780601f106125205761010080835404028352916020019161254b565b820191906000526020600020905b81548152906001019060200180831161252e57829003601f168201915b5050505050905090565b60606000820361259c576040518060400160405280600181526020017f300000000000000000000000000000000000000000000000000000000000000081525090506126b0565b600082905060005b600082146125ce5780806125b790613a11565b915050600a826125c79190614703565b91506125a4565b60008167ffffffffffffffff8111156125ea576125e961326a565b5b6040519080825280601f01601f19166020018201604052801561261c5781602001600182028036833780820191505090505b5090505b600085146126a95760018261263591906143de565b9150600a856126449190614734565b60306126509190613709565b60f81b81838151811061266657612665614765565b5b60200101907effffffffffffffffffffffffffffffffffffffffffffffffffffffffffffff1916908160001a905350600a856126a29190614703565b9450612620565b8093505050505b919050565b60008073ffffffffffffffffffffffffffffffffffffffff168273ffffffffffffffffffffffffffffffffffffffff1603612725576040517f08c379a000000000000000000000000000000000000000000000000000000000815260040161271c90614806565b60405180910390fd5b600560008373ffffffffffffffffffffffffffffffffffffffff1673ffffffffffffffffffffffffffffffffffffffff16815260200190815260200160002060000160109054906101000a90046fffffffffffffffffffffffffffffffff166fffffffffffffffffffffffffffffffff169050919050565b60006001549050600073ffffffffffffffffffffffffffffffffffffffff168473ffffffffffffffffffffffffffffffffffffffff1603612813576040517f08c379a000000000000000000000000000000000000000000000000000000000815260040161280a90614898565b60405180910390fd5b61281c8161174b565b1561285c576040517f08c379a000000000000000000000000000000000000000000000000000000000815260040161285390614904565b60405180910390fd5b7f00000000000000000000000000000000000000000000000000000000000000008311156128bf576040517f08c379a00000000000000000000000000000000000000000000000000000000081526004016128b690614996565b60405180910390fd5b6128cc6000858386612c7c565b6000600560008673ffffffffffffffffffffffffffffffffffffffff1673ffffffffffffffffffffffffffffffffffffffff1681526020019081526020016000206040518060400160405290816000820160009054906101000a90046fffffffffffffffffffffffffffffffff166fffffffffffffffffffffffffffffffff166fffffffffffffffffffffffffffffffff1681526020016000820160109054906101000a90046fffffffffffffffffffffffffffffffff166fffffffffffffffffffffffffffffffff166fffffffffffffffffffffffffffffffff1681525050905060405180604001604052808583600001516129c9919061432e565b6fffffffffffffffffffffffffffffffff1681526020018583602001516129f0919061432e565b6fffffffffffffffffffffffffffffffff16815250600560008773ffffffffffffffffffffffffffffffffffffffff1673ffffffffffffffffffffffffffffffffffffffff16815260200190815260200160002060008201518160000160006101000a8154816fffffffffffffffffffffffffffffffff02191690836fffffffffffffffffffffffffffffffff16021790555060208201518160000160106101000a8154816fffffffffffffffffffffffffffffffff02191690836fffffffffffffffffffffffffffffffff16021790555090505060405180604001604052808673ffffffffffffffffffffffffffffffffffffffff1681526020014267ffffffffffffffff168152506004600084815260200190815260200160002060008201518160000160006101000a81548173ffffffffffffffffffffffffffffffffffffffff021916908373ffffffffffffffffffffffffffffffffffffffff16021790555060208201518160000160146101000a81548167ffffffffffffffff021916908367ffffffffffffffff160217905550905050600082905060005b85811015612c5f57818773ffffffffffffffffffffffffffffffffffffffff16600073ffffffffffffffffffffffffffffffffffffffff167fddf252ad1be2c89b69c2b068fc378daa952ba7f163c4a11628f55a4df523b3ef60405160405180910390a4612bff600088848861233c565b612c3e576040517f08c379a0000000000000000000000000000000000000000000000000000000008152600401612c3590613f74565b60405180910390fd5b8180612c4990613a11565b9250508080612c5790613a11565b915050612b8e565b5080600181905550612c746000878588612c82565b505050505050565b50505050565b50505050565b600080823b905060008111915050919050565b6040518060400160405280600073ffffffffffffffffffffffffffffffffffffffff168152602001600067ffffffffffffffff1681525090565b6000604051905090565b600080fd5b600080fd5b60007fffffffff0000000000000000000000000000000000000000000000000000000082169050919050565b612d1e81612ce9565b8114612d2957600080fd5b50565b600081359050612d3b81612d15565b92915050565b600060208284031215612d5757612d56612cdf565b5b6000612d6584828501612d2c565b91505092915050565b60008115159050919050565b612d8381612d6e565b82525050565b6000602082019050612d9e6000830184612d7a565b92915050565b600081519050919050565b600082825260208201905092915050565b60005b83811015612dde578082015181840152602081019050612dc3565b60008484015250505050565b6000601f19601f8301169050919050565b6000612e0682612da4565b612e108185612daf565b9350612e20818560208601612dc0565b612e2981612dea565b840191505092915050565b60006020820190508181036000830152612e4e8184612dfb565b905092915050565b6000819050919050565b612e6981612e56565b8114612e7457600080fd5b50565b600081359050612e8681612e60565b92915050565b600060208284031215612ea257612ea1612cdf565b5b6000612eb084828501612e77565b91505092915050565b600073ffffffffffffffffffffffffffffffffffffffff82169050919050565b6000612ee482612eb9565b9050919050565b612ef481612ed9565b82525050565b6000602082019050612f0f6000830184612eeb565b92915050565b612f1e81612ed9565b8114612f2957600080fd5b50565b600081359050612f3b81612f15565b92915050565b60008060408385031215612f5857612f57612cdf565b5b6000612f6685828601612f2c565b9250506020612f7785828601612e77565b9150509250929050565b612f8a81612e56565b82525050565b6000602082019050612fa56000830184612f81565b92915050565b600080600060608486031215612fc457612fc3612cdf565b5b6000612fd286828701612f2c565b9350506020612fe386828701612f2c565b9250506040612ff486828701612e77565b9150509250925092565b600060ff82169050919050565b61301481612ffe565b82525050565b600060208201905061302f600083018461300b565b92915050565b600080fd5b600080fd5b600080fd5b60008083601f84011261305a57613059613035565b5b8235905067ffffffffffffffff8111156130775761307661303a565b5b6020830191508360018202830111156130935761309261303f565b5b9250929050565b600080602083850312156130b1576130b0612cdf565b5b600083013567ffffffffffffffff8111156130cf576130ce612ce4565b5b6130db85828601613044565b92509250509250929050565b600080604083850312156130fe576130fd612cdf565b5b600061310c85828601612e77565b925050602061311d85828601612e77565b9150509250929050565b60006020828403121561313d5761313c612cdf565b5b600061314b84828501612f2c565b91505092915050565b60006040820190506131696000830185612f81565b6131766020830184612f81565b9392505050565b61318681612ed9565b82525050565b600067ffffffffffffffff82169050919050565b6131a98161318c565b82525050565b6040820160008201516131c5600085018261317d565b5060208201516131d860208501826131a0565b50505050565b60006040820190506131f360008301846131af565b92915050565b61320281612d6e565b811461320d57600080fd5b50565b60008135905061321f816131f9565b92915050565b6000806040838503121561323c5761323b612cdf565b5b600061324a85828601612f2c565b925050602061325b85828601613210565b9150509250929050565b600080fd5b7f4e487b7100000000000000000000000000000000000000000000000000000000600052604160045260246000fd5b6132a282612dea565b810181811067ffffffffffffffff821117156132c1576132c061326a565b5b80604052505050565b60006132d4612cd5565b90506132e08282613299565b919050565b600067ffffffffffffffff821115613300576132ff61326a565b5b61330982612dea565b9050602081019050919050565b82818337600083830152505050565b6000613338613333846132e5565b6132ca565b90508281526020810184848401111561335457613353613265565b5b61335f848285613316565b509392505050565b600082601f83011261337c5761337b613035565b5b813561338c848260208601613325565b91505092915050565b600080600080608085870312156133af576133ae612cdf565b5b60006133bd87828801612f2c565b94505060206133ce87828801612f2c565b93505060406133df87828801612e77565b925050606085013567ffffffffffffffff811115613400576133ff612ce4565b5b61340c87828801613367565b91505092959194509250565b6000806040838503121561342f5761342e612cdf565b5b600061343d85828601612f2c565b925050602061344e85828601612f2c565b9150509250929050565b7f4e487b7100000000000000000000000000000000000000000000000000000000600052602260045260246000fd5b6000600282049050600182168061349f57607f821691505b6020821081036134b2576134b1613458565b5b50919050565b7f455243373231413a20617070726f76656420717565727920666f72206e6f6e6560008201527f78697374656e7420746f6b656e00000000000000000000000000000000000000602082015250565b6000613514602d83612daf565b915061351f826134b8565b604082019050919050565b6000602082019050818103600083015261354381613507565b9050919050565b7f455243373231413a20617070726f76616c20746f2063757272656e74206f776e60008201527f6572000000000000000000000000000000000000000000000000000000000000602082015250565b60006135a6602283612daf565b91506135b18261354a565b604082019050919050565b600060208201905081810360008301526135d581613599565b9050919050565b7f455243373231413a20617070726f76652063616c6c6572206973206e6f74206f60008201527f776e6572206e6f7220617070726f76656420666f7220616c6c00000000000000602082015250565b6000613638603983612daf565b9150613643826135dc565b604082019050919050565b600060208201905081810360008301526136678161362b565b9050919050565b7f5468652063616c6c657220697320616e6f7468657220636f6e74726163740000600082015250565b60006136a4601e83612daf565b91506136af8261366e565b602082019050919050565b600060208201905081810360008301526136d381613697565b9050919050565b7f4e487b7100000000000000000000000000000000000000000000000000000000600052601160045260246000fd5b600061371482612e56565b915061371f83612e56565b9250828201905080821115613737576137366136da565b5b92915050565b7f6d696e74696e67206973206e6f74206c69766520796574206f7220686173206560008201527f6e64656400000000000000000000000000000000000000000000000000000000602082015250565b6000613799602483612daf565b91506137a48261373d565b604082019050919050565b600060208201905081810360008301526137c88161378c565b9050919050565b7f72656163686564206d617820737570706c790000000000000000000000000000600082015250565b6000613805601283612daf565b9150613810826137cf565b602082019050919050565b60006020820190508181036000830152613834816137f8565b9050919050565b7f63616e206e6f74206d696e742074686973206d616e7900000000000000000000600082015250565b6000613871601683612daf565b915061387c8261383b565b602082019050919050565b600060208201905081810360008301526138a081613864565b9050919050565b7f4f776e61626c653a2063616c6c6572206973206e6f7420746865206f776e6572600082015250565b60006138dd602083612daf565b91506138e8826138a7565b602082019050919050565b6000602082019050818103600083015261390c816138d0565b9050919050565b7f5265656e7472616e637947756172643a207265656e7472616e742063616c6c00600082015250565b6000613949601f83612daf565b915061395482613913565b602082019050919050565b600060208201905081810360008301526139788161393c565b9050919050565b7f455243373231413a206f776e657220696e646578206f7574206f6620626f756e60008201527f6473000000000000000000000000000000000000000000000000000000000000602082015250565b60006139db602283612daf565b91506139e68261397f565b604082019050919050565b60006020820190508181036000830152613a0a816139ce565b9050919050565b6000613a1c82612e56565b91507fffffffffffffffffffffffffffffffffffffffffffffffffffffffffffffffff8203613a4e57613a4d6136da565b5b600182019050919050565b7f455243373231413a20756e61626c6520746f2067657420746f6b656e206f662060008201527f6f776e657220627920696e646578000000000000000000000000000000000000602082015250565b6000613ab5602e83612daf565b9150613ac082613a59565b604082019050919050565b60006020820190508181036000830152613ae481613aa8565b9050919050565b7f455243373231413a20676c6f62616c20696e646578206f7574206f6620626f7560008201527f6e64730000000000000000000000000000000000000000000000000000000000602082015250565b6000613b47602383612daf565b9150613b5282613aeb565b604082019050919050565b60006020820190508181036000830152613b7681613b3a565b9050919050565b600082905092915050565b60008190508160005260206000209050919050565b60006020601f8301049050919050565b600082821b905092915050565b600060088302613bea7fffffffffffffffffffffffffffffffffffffffffffffffffffffffffffffffff82613bad565b613bf48683613bad565b95508019841693508086168417925050509392505050565b6000819050919050565b6000613c31613c2c613c2784612e56565b613c0c565b612e56565b9050919050565b6000819050919050565b613c4b83613c16565b613c5f613c5782613c38565b848454613bba565b825550505050565b600090565b613c74613c67565b613c7f818484613c42565b505050565b5b81811015613ca357613c98600082613c6c565b600181019050613c85565b5050565b601f821115613ce857613cb981613b88565b613cc284613b9d565b81016020851015613cd1578190505b613ce5613cdd85613b9d565b830182613c84565b50505b505050565b600082821c905092915050565b6000613d0b60001984600802613ced565b1980831691505092915050565b6000613d248383613cfa565b9150826002028217905092915050565b613d3e8383613b7d565b67ffffffffffffffff811115613d5757613d5661326a565b5b613d618254613487565b613d6c828285613ca7565b6000601f831160018114613d9b5760008415613d89578287013590505b613d938582613d18565b865550613dfb565b601f198416613da986613b88565b60005b82811015613dd157848901358255600182019150602085019450602081019050613dac565b86831015613dee5784890135613dea601f891682613cfa565b8355505b6001600288020188555050505b50505050505050565b7f455243373231413a2062616c616e636520717565727920666f7220746865207a60008201527f65726f2061646472657373000000000000000000000000000000000000000000602082015250565b6000613e60602b83612daf565b9150613e6b82613e04565b604082019050919050565b60006020820190508181036000830152613e8f81613e53565b9050919050565b7f455243373231413a20617070726f766520746f2063616c6c6572000000000000600082015250565b6000613ecc601a83612daf565b9150613ed782613e96565b602082019050919050565b60006020820190508181036000830152613efb81613ebf565b9050919050565b7f455243373231413a207472616e7366657220746f206e6f6e204552433732315260008201527f6563656976657220696d706c656d656e74657200000000000000000000000000602082015250565b6000613f5e603383612daf565b9150613f6982613f02565b604082019050919050565b60006020820190508181036000830152613f8d81613f51565b9050919050565b7f4552433732314d657461646174613a2055524920717565727920666f72206e6f60008201527f6e6578697374656e7420746f6b656e0000000000000000000000000000000000602082015250565b6000613ff0602f83612daf565b9150613ffb82613f94565b604082019050919050565b6000602082019050818103600083015261401f81613fe3565b9050919050565b600081905092915050565b600061403c82612da4565b6140468185614026565b9350614056818560208601612dc0565b80840191505092915050565b600061406e8285614031565b915061407a8284614031565b91508190509392505050565b7f4f776e61626c653a206e6577206f776e657220697320746865207a65726f206160008201527f6464726573730000000000000000000000000000000000000000000000000000602082015250565b60006140e2602683612daf565b91506140ed82614086565b604082019050919050565b60006020820190508181036000830152614111816140d5565b9050919050565b7f455243373231413a207472616e736665722063616c6c6572206973206e6f742060008201527f6f776e6572206e6f7220617070726f7665640000000000000000000000000000602082015250565b6000614174603283612daf565b915061417f82614118565b604082019050919050565b600060208201905081810360008301526141a381614167565b9050919050565b7f455243373231413a207472616e736665722066726f6d20696e636f727265637460008201527f206f776e65720000000000000000000000000000000000000000000000000000602082015250565b6000614206602683612daf565b9150614211826141aa565b604082019050919050565b60006020820190508181036000830152614235816141f9565b9050919050565b7f455243373231413a207472616e7366657220746f20746865207a65726f20616460008201527f6472657373000000000000000000000000000000000000000000000000000000602082015250565b6000614298602583612daf565b91506142a38261423c565b604082019050919050565b600060208201905081810360008301526142c78161428b565b9050919050565b60006fffffffffffffffffffffffffffffffff82169050919050565b60006142f5826142ce565b9150614300836142ce565b925082820390506fffffffffffffffffffffffffffffffff811115614328576143276136da565b5b92915050565b6000614339826142ce565b9150614344836142ce565b925082820190506fffffffffffffffffffffffffffffffff81111561436c5761436b6136da565b5b92915050565b7f7175616e74697479206d757374206265206e6f6e7a65726f0000000000000000600082015250565b60006143a8601883612daf565b91506143b382614372565b602082019050919050565b600060208201905081810360008301526143d78161439b565b9050919050565b60006143e982612e56565b91506143f483612e56565b925082820390508181111561440c5761440b6136da565b5b92915050565b7f6e6f7420656e6f756768206d696e7465642079657420666f722074686973206360008201527f6c65616e75700000000000000000000000000000000000000000000000000000602082015250565b600061446e602683612daf565b915061447982614412565b604082019050919050565b6000602082019050818103600083015261449d81614461565b9050919050565b7f455243373231413a206f776e657220717565727920666f72206e6f6e6578697360008201527f74656e7420746f6b656e00000000000000000000000000000000000000000000602082015250565b6000614500602a83612daf565b915061450b826144a4565b604082019050919050565b6000602082019050818103600083015261452f816144f3565b9050919050565b600061454182612e56565b915060008203614554576145536136da565b5b600182039050919050565b7f455243373231413a20756e61626c6520746f2064657465726d696e652074686560008201527f206f776e6572206f6620746f6b656e0000000000000000000000000000000000602082015250565b60006145bb602f83612daf565b91506145c68261455f565b604082019050919050565b600060208201905081810360008301526145ea816145ae565b9050919050565b600081519050919050565b600082825260208201905092915050565b6000614618826145f1565b61462281856145fc565b9350614632818560208601612dc0565b61463b81612dea565b840191505092915050565b600060808201905061465b6000830187612eeb565b6146686020830186612eeb565b6146756040830185612f81565b8181036060830152614687818461460d565b905095945050505050565b6000815190506146a181612d15565b92915050565b6000602082840312156146bd576146bc612cdf565b5b60006146cb84828501614692565b91505092915050565b7f4e487b7100000000000000000000000000000000000000000000000000000000600052601260045260246000fd5b600061470e82612e56565b915061471983612e56565b925082614729576147286146d4565b5b828204905092915050565b600061473f82612e56565b915061474a83612e56565b92508261475a576147596146d4565b5b828206905092915050565b7f4e487b7100000000000000000000000000000000000000000000000000000000600052603260045260246000fd5b7f455243373231413a206e756d626572206d696e74656420717565727920666f7260008201527f20746865207a65726f2061646472657373000000000000000000000000000000602082015250565b60006147f0603183612daf565b91506147fb82614794565b604082019050919050565b6000602082019050818103600083015261481f816147e3565b9050919050565b7f455243373231413a206d696e7420746f20746865207a65726f2061646472657360008201527f7300000000000000000000000000000000000000000000000000000000000000602082015250565b6000614882602183612daf565b915061488d82614826565b604082019050919050565b600060208201905081810360008301526148b181614875565b9050919050565b7f455243373231413a20746f6b656e20616c7265616479206d696e746564000000600082015250565b60006148ee601d83612daf565b91506148f9826148b8565b602082019050919050565b6000602082019050818103600083015261491d816148e1565b9050919050565b7f455243373231413a207175616e7469747920746f206d696e7420746f6f20686960008201527f6768000000000000000000000000000000000000000000000000000000000000602082015250565b6000614980602283612daf565b915061498b82614924565b604082019050919050565b600060208201905081810360008301526149af81614973565b905091905056fea2646970667358221220f8ada628b35e6d6d0be9d7ff6a65d5e056407247277ce135ace250430e2cc50664736f6c63430008130033",
  "linkReferences": {},
  "deployedLinkReferences": {}
}